:020000040800F2
:1000000000A000200D290008C5080008C708000846
:10001000C9080008CB080008CD080008000000004F
:10002000000000000000000000000000CF080008F1
:10003000D108000800000000D3080008D508000817
:100040005D2900085D2900085D2900085D29000878
:100050005D2900085D2900085D2900085D29000868
:100060005D2900085D2900085D2900085D29000858
:100070005D2900085D2900085D2900085D29000848
:100080005D2900085D2900085D2900085D29000838
:10009000DD0800085D2900085D2900085D290008C9
:1000A0005D2900085D2900085D2900085D29000818
:1000B0005D2900085D2900085D2900085D29000808
:1000C0005D2900085D2900085D2900085D290008F8
:1000D0005D2900085D2900085D2900085D290008E8
:1000E0005D2900085D2900085D2900085D290008D8
:1000F0005D2900085D2900085D2900085D290008C8
:100100000000000000000000000000005D29000861
:100110005D2900085D2900085D2900085D290008A7
:100120005D2900085D2900085D2900085D29000897
:100130005D2900085D2900080000000000000000A3
:100140005D2900085D2900085D2900080000000005
:10015000000000000000000000000000000000009F
:1001600000000000000000005D2900085D29000873
:100170005D290008000000000000000000000000F1
:08018000000000005D290008E9
:1001900001F0FF01102A2BDB10F0070F08D010F838
:1001A000013B013A8B422DD010F0070F42B3F6D13C
:1001B000F0B441EA012141EA014122F007047FF055
:1001C00000070023F0E80256083C85EA010586EAAC
:1001D000010685FA47F5A3FA87F586FA47F6A5FAE8
:1001E00087F68EB9EED1F0BC01F0FF0102F00702F4
:1001F00032B110F8013B013A83EA010313B1F8D19F
:100200000020704701387047002D06BF354603387F
:10021000073815F0010F07D1013015F4807F02BFB8
:10022000013015F4C03F0130F0BC0138704700BF09
:100230000348044B834202D0034B03B11847704775
:100240006400002064000020000000000548064B08
:100250001B1AD90F01EBA301491002D0034B03B1C4
:100260001847704764000020640000200000000070
:1002700010B5064C237843B9FFF7DAFF044B13B1EE
:100280000448AFF300800123237010BD64000020F8
:1002900000000000A432000808B5054B1BB1054959
:1002A0000548AFF30080BDE80840FFF7CFBF00BFAF
:1002B0000000000068000020A432000808B5054BCB
:1002C000054A002100F039FD4FF48071034801F028
:1002D000ECFD08BDA0000020A80000200010004890
:1002E00072B6FEE700B59FB02822002114A802F0E4
:1002F00057FB00210F9110911191129113913C2203
:10030000684602F04DFB032314934FF4A02315938A
:10031000012318931023199302231B934FF4803366
:100320001C934FF480131D9314A800F04DFFE8B9FF
:100330000F230F9302231093002311934FF4806235
:100340001292139301210FA801F090FA80B90A4B81
:1003500000930023029307934FF480030E936846A3
:1003600001F08AFB30B91FB05DF804FBFFF7B8FF5E
:10037000FFF7B6FFFFF7B4FF2100020008B500F059
:10038000EBFEFFF7AFFF00F0BFF800F01DF900F043
:1003900091F900F0F1F900F049FA01F09BFF484CA7
:1003A000204600F005FC0221204600F06BFD454B85
:1003B0001860E8B9444E3446444D0FCD0FC495E85B
:1003C0000F0007C4238064231E223146404802F0F8
:1003D000C8F9404B01221A6100225A609A60DA6023
:1003E00040F2031119601A753B4B64221A7049E000
:1003F000354E3446394D0FCD0FC495E80F0007C474
:10040000237064231E223146314802F0AAF9E0E746
:100410002D4D334B2C460FCB07C4238064231E2263
:1004200029462B4802F09DF9254800F06DFC024654
:100430002C4B1860244C2C49204602F091FA244D94
:1004400064231E222146284602F08BF9274B1A68A6
:100450002749204602F084FA64231E2221462846BA
:1004600002F07FF9234B1A782349204602F078FAEC
:1004700064231E222146284602F073F94FF47A7055
:1004800000F08EFE0F4C012323604FF480511B4877
:1004900001F00BFD1A4B104A0E49094800F0B6FB5B
:1004A00020600028B4D0084D164B2C460FCB07C453
:1004B000237064231E222946054802F052F9B3E74F
:1004C000F40000200400002080000020BC3200085E
:1004D000BC040020CC000020C4000020DC32000856
:1004E000FC320008000000201C330008A800002097
:1004F00038330008A00000204833000800100048EE
:10050000E40000200C33000870B58AB00024059484
:100510000694079408940994294B5A6942F40012EE
:100520005A615A6902F400120092009A5A6942F420
:1005300000225A615A6902F400220192019A5A6912
:1005400042F480025A615A6902F480020292029ACD
:100550005A6942F400325A615A6902F40032039235
:10056000039A5A6942F480225A615B6903F480233A
:100570000493049B134D22464FF60871284601F060
:100580008FFC372305934FF490130693079405A926
:10059000284601F0A1FB4FF6087305930126069645
:1005A0000794089405A9284601F096FB0596069441
:1005B000079405A94FF0904001F08EFB0AB070BD82
:1005C000001002400010004800B58BB01848194BCD
:1005D0000360092343604FF0804383600023C360BE
:1005E0004FF4003202614FF44012426103764376C9
:1005F0008376C3760377437700F0B1F9A0B901227F
:1006000008920A2305930023049300930193029315
:100610000393069307920E2309936946044800F05A
:1006200044FA0BB05DF804FBFFF75AFEE7E700BFA2
:10063000F40000200064004000B589B0002303935B
:1006400004930593069307930268184B9A4202D0CD
:1006500009B05DF804FB03F5D633DA6942F00072A5
:10066000DA61DA6902F000720192019A5A6942F481
:1006700080225A615B6903F480230293029B4FF44A
:1006800040730393022304930323069309230793E0
:1006900003A9074801F020FB00221146142001F0B5
:1006A0001FFC142001F054FCD2E700BF006400409E
:1006B0000004004808B51248124B0360124B436017
:1006C000002383600122C260036143618361C361CF
:1006D000036201F05FFC50B90021094801F0B8FC49
:1006E00040B90021064801F0E1FC30B908BDFFF730
:1006F000F7FDF1E7FFF7F4FDF3E7FFF7F1FDF5E7AD
:100700001C010020005400400E09002010B588B0E4
:100710000023039304930593069307930268134BF6
:100720009A4201D008B010BD114C636943F4802394
:100730006361636903F480230193019BC0230393E6
:1007400012230493012305930323069304230793A1
:1007500003A9084801F0C0FAE36943F40013E36118
:10076000E36903F400130293029BDBE700540040AB
:10077000001002400004004808B51048104B036008
:100780004FF482734360002383604FF44072C26071
:10079000036143614FF4007282610822C261036207
:1007A000436283620721C1620363426301F0AAFCD2
:1007B00000B908BDFFF794FDFBE700BF680100200A
:1007C0000030014000B589B00023039304930593E2
:1007D000069307930268144B9A4202D009B05DF861
:1007E00004FB03F560439A6942F480529A619A6966
:1007F00002F480520192019A5A6942F400325A611D
:100800005B6903F400330293029BE023039302230A
:100810000493032306930523079303A94FF0904005
:1008200001F05AFADAE700BF0030014008B5094884
:10083000094B0360082343600223836003610023A4
:100840008361036201F0D2FC00B908BDFFF748FDE7
:10085000FBE700BFCC010020005C004010B588B071
:100860000023039304930593069307930268134BA5
:100870009A4201D008B010BD114C636943F40033B3
:100880006361636903F400330193019B4FF4C05328
:10089000039302230493032306930E23079303A9D0
:1008A0004FF0904001F018FAE36943F40003E3616C
:1008B000E36903F400030293029BDBE7005C004062
:1008C00000100240FEE7FEE7FEE7FEE7FEE77047A6
:1008D0007047704708B500F051FC08BD08B50248E4
:1008E00000F0EEFA08BD00BFF400002000B583B0B0
:1008F0000C4B9A6942F001029A619A6902F0010276
:100900000092009ADA6942F08052DA61DB6903F002
:1009100080530193019B072001F0D0FA03B05DF8EA
:1009200004FB00BF00100240B0F8403023F47C53B9
:100930005B045B0CA0F840300020704784B0844614
:1009400001A880E80E000123ACF840300020ACF88C
:100950004000ACF84400ACF8500004B070470028E8
:1009600000F0A18038B5044690F82030D3B1226859
:10097000136843F00103136000F00CFC0546236884
:100980005A6812F0010F10D100F004FC401B0A2835
:10099000F5D9636A43F400336362052384F8203099
:1009A000012038BDFFF748FEE1E71A6822F0020295
:1009B0001A6000F0EFFB054623685A6812F0020F38
:1009C0000DD000F0E7FB401B0A28F5D9636A43F419
:1009D00000336362052384F820300120E1E7227EA2
:1009E000012A3DD01A6822F080021A60637E012B32
:1009F0003BD02268136823F040031360A37E012BD1
:100A000039D02268136823F020031360E37E012BA2
:100A100037D02268136843F010031360237F012B43
:100A200035D02268136823F008031360637F012B1D
:100A300033D02268136823F004031360A368E268CC
:100A4000134322691343626913436268013A2168C0
:100A50001343CB6100206062012384F82030A0E7BB
:100A60001A6842F080021A60C0E72268136843F0F7
:100A700040031360C2E72268136843F02003136049
:100A8000C4E72268136823F010031360C6E72268E6
:100A9000136843F008031360C8E72268136843F043
:100AA00004031360CAE701207047026890F8203001
:100AB000013BDBB2012B05D9436A43F48023436237
:100AC0000120704730B4D2F8003243F00103C2F87D
:100AD00000324B6903F01F03012000FA03F3D2F840
:100AE0001C026FEA030C20EA0300C2F81C02C8696A
:100AF000B0B9D2F80C020CEA0000C2F80C028C88E3
:100B00004869CD6844EA0544483042F830400C88D2
:100B100048698D6844EA0544483002EBC0004460EF
:100B2000C86901281BD0886980BBD2F804020CEA8E
:100B30000000C2F80402086970BBD2F814020CEA83
:100B40000000C2F81402096A01292BD0D2F8003241
:100B500023F00103C2F80032002030BC7047D2F805
:100B60000C021843C2F80C028C8848690D6844EAEC
:100B70000544483042F830408C8948698D6844EA21
:100B80000544483002EBC0004460CCE7D2F80402D0
:100B90001843C2F80402CEE7D2F814021843C2F890
:100BA0001402D0E7D2F81C120B43C2F81C32CDE776
:100BB00070B5044690F82050EDB2012D06D0436A7E
:100BC00043F4002343620125284670BD022380F8C8
:100BD00020300268136823F00103136000F0DAFA92
:100BE000064623685B6813F0010F0CD000F0D2FAC0
:100BF000831B0A2BF5D9636A43F400336362052330
:100C000084F82030E0E700256562DDE730B590F834
:100C100020C00468A4680CF1FF3C5FFA8CFCBCF1B6
:100C2000010F6BD814F0E05F62D0C4F3016CBCF12B
:100C3000020F05D9436A43F400034362012062E0D6
:100C4000012404FA0CF41C608B68002B3DD10D6864
:100C5000CB68046843EA45550CF118031B01E550C5
:100C600003680C690CF1180E03EB0E135C600B7D2E
:100C7000012B35D0D17993791B0443EA0163517973
:100C800043EA012314790168234301EB0C11C1F8F5
:100C90008C31D17893781B0443EA0163517843EA9D
:100CA0000123117802680B4302EB0C12C2F8883161
:100CB00002680CF1180C4FEA0C1C52F80C3043F08F
:100CC000010342F80C3000201DE04C6843EAC403E5
:100CD000CC6823430CF11804240105682B51BFE7AD
:100CE000036803EB0E13596841F480715960C1E742
:100CF000436A43F400134362012004E0436A43F46F
:100D000080234362012030BD90F82030013BDBB2EC
:100D1000012B01D9002070470368986810F08060AB
:100D200000D001209A6812F0006F00D001309B685B
:100D300013F0805FEFD00130704790F820C00CF1C5
:100D4000FF3C5FFA8CFCBCF1010F00F2958030B4DF
:100D500051B90468E46814F0030F10D1436A43F4F6
:100D600000134362012077E00468246914F0030F44
:100D700005D1436A43F40013436201206CE001F1A2
:100D80001B04240105682C5904F004049460002C11
:100D900064D101F11B04240105682C59640D146011
:100DA000046801F11B0C4FEA0C1C54F80C4004F0D1
:100DB0000204D46004686444646804F00F0414619D
:100DC000046864446468C4F3072494610468644458
:100DD0006468240C5461026802EB0112D2F8B82155
:100DE0001A70026802EB0112D2F8B821C2F307228E
:100DF0005A70026802EB0112D2F8B821C2F307421E
:100E00009A70026802EB0112D2F8B821120EDA7061
:100E1000026802EB0112D2F8BC211A71026802EBDF
:100E20000112D2F8BC21C2F307225A71026802EB08
:100E30000112D2F8BC21C2F307429A71026802EB98
:100E40000112D2F8BC21120EDA7179B90268D368A6
:100E500043F02003D360002030BC704701F11B0435
:100E6000240105682C59E408546099E70268136965
:100E700043F020031361EEE7436A43F480234362A7
:100E80000120704790F82030013BDBB2012B05D9DF
:100E9000436A43F480234362012070470268536928
:100EA0001943516100207047704770477047704781
:100EB000704770477047704770477047704770477A
:100EC0002DE9F84F054603685C69D3F804809F68F4
:100ED000D3F80CB0D3F810A0D3F8189014F0010692
:100EE0003BD017F0010616D001229A6017F0020FCE
:100EF00008D117F0040F0CD117F0080606D04FF4F4
:100F0000805608E0FFF7D0FF002604E0FFF7CFFF90
:100F100001E04FF4006617F4807F0DD02B684FF48A
:100F200080729A6017F4007F40F0868017F4806F1B
:100F300000F0868046F4005617F4803F0DD02B68F1
:100F40004FF480329A6017F4003F40F0838017F42A
:100F5000802F00F0838046F4004614F0080F07D07D
:100F60001BF0100F04D046F400762B681022DA60D4
:100F700014F0040F02D01BF0080F79D114F0020F07
:100F800004D02B68DB6813F0030F78D114F0400F06
:100F900007D01AF0100F04D046F480662B68102298
:100FA0001A6114F0200F02D01AF0080F6BD114F060
:100FB000100F04D02B681B6913F0030F6AD114F4CF
:100FC000003F02D018F0100F68D114F4803F02D017
:100FD00018F0080F69D114F4004F7AD018F0040FFC
:100FE00074D014F4807F04D019F0010F01D046F0C2
:100FF000010614F4007F04D019F0020F01D046F06E
:10100000020614F4806F04D019F0040F01D046F0EA
:10101000040614F4006F59D019F0700956D0B9F1D4
:10102000400F65D058D8B9F1200F5ED0B9F1300F1C
:1010300042D146F0200644E02846FFF736FF7BE722
:1010400017F4006F02D046F4804675E72846FFF794
:101050002FFF71E72846FFF729FF7EE717F4002FDF
:1010600002D046F4803678E72846FFF722FF74E77F
:101070002B680822DA602846FFF71CFF7EE7284627
:10108000FFF71CF982E72B6808221A612846FFF750
:1010900013FF8CE72846FFF70EFF90E72B6810221E
:1010A0005A602846FFF709FF8FE72B6808225A602D
:1010B0002846FFF703FF8EE7B9F1100F01D146F084
:1010C00008062A68936923F0700393612B68042251
:1010D0005A609EB9BDE8F88FB9F1500F0BD0B9F145
:1010E000600FEED146F48076EBE746F01006E8E7B5
:1010F00046F04006E5E746F08006E2E76B6A1E43ED
:101100006E622846FFF7DBFEE4E7000010B50446F8
:101110000E4B18784FF47A73B3FBF0F30C4A106857
:10112000B0FBF3F000F022FF68B90F2C01D90120C9
:101130000AE0002221464FF0FF3000F0D1FE054BBF
:101140001C60002000E0012010BD00BF080000204E
:10115000100000200C00002008B5074A136843F077
:1011600010031360032000F0A9FE0020FFF7CEFF5C
:10117000FFF7BCFB002008BD00200240034A1168B5
:10118000034B1B780B441360704700BFB80400206A
:1011900008000020014B1868704700BFB804002009
:1011A00038B50446FFF7F6FF0546B4F1FF3F02D01D
:1011B000044B1B781C44FFF7EDFF401BA042FAD301
:1011C00038BD00BF08000020002800F0018370B582
:1011D00082B00446036813F0010F3BD0B54B5B6847
:1011E00003F00C03042B1ED0B24B5B6803F00C031E
:1011F000082B13D06368B3F5803F68D0002B40F014
:10120000928003F1804303F504331A6822F480329C
:101210001A601A6822F480221A605DE0A54B5B68B0
:1012200013F4803FE6D04FF4003393FAA3F3A14BBD
:1012300019684FF4003393FAA3F3B3FA83F303F07E
:101240001F03012202FA03F30B4203D06368002B51
:1012500000F0C082236813F0020F00F0C580954BA8
:101260005B6813F00C0F00F09C80924B5B6803F0FE
:101270000C03082B00F08F802369002B00F0F28014
:10128000012292FAA2F3B3FA83F303F1845303F534
:1012900084139B001A60FFF77DFF0546022393FA33
:1012A000A3F3844B1968022393FAA3F3B3FA83F3ED
:1012B00003F01F03012202FA03F30B4240F0C38044
:1012C000FFF768FF401B0228E8D903208BE2794A28
:1012D000136843F480331360764AD36A23F00F0314
:1012E000A1680B43D3626368002B36D0FFF752FF2F
:1012F00005464FF4003393FAA3F36E4B19684FF48D
:10130000003393FAA3F3B3FA83F303F01F0301222C
:1013100002FA03F30B429DD1FFF73CFF401B642808
:10132000E7D903205FE2B3F5A02F09D0614B1A681B
:1013300022F480321A601A6822F480221A60CBE705
:1013400003F18043A3F53C331A6842F480221A600B
:101350001A6842F480321A60BEE7FFF71BFF0546A9
:101360004FF4003393FAA3F3524B19684FF4003350
:1013700093FAA3F3B3FA83F303F01F03012202FAF3
:1013800003F30B423FF466AFFFF704FF401B6428F2
:10139000E6D9032027E2474B5B6813F4803F7FF4D4
:1013A0006BAF022393FAA3F3424B1968022393FA1B
:1013B000A3F3B3FA83F303F01F03012202FA03F34A
:1013C0000B4203D02369934240F0068239480368F8
:1013D00023F0F8036169F82292FAA2F2B2FA82F2DB
:1013E00001FA02F213430360236813F0080F00F0C0
:1013F0008D80A369002B61D0012191FAA1F2B2FA8C
:1014000082F22D4B13449B001960FFF7C3FE054683
:10141000022393FAA3F293FAA3F293FAA3F2254AD2
:10142000516A93FAA3F3B3FA83F303F01F03012283
:1014300002FA03F30B4269D1FFF7ACFE401B02280E
:10144000E6D90320CFE11B48036823F0F803616964
:10145000F82292FAA2F2B2FA82F201FA02F21343ED
:101460000360C1E7012393FAA3F3B3FA83F303F113
:10147000845303F584139B0000221A60FFF78AFE51
:101480000546022393FAA3F30A4B1968022393FA41
:10149000A3F3B3FA83F303F01F03012202FA03F369
:1014A0000B42A1D0FFF776FE401B0228E9D90320AA
:1014B00099E100BF0010024020819010012292FAB1
:1014C000A2F2B2FA82F2B74B13449B0000221A60D8
:1014D000FFF760FE0546022393FAA3F293FAA3F204
:1014E00093FAA3F2B04A516A93FAA3F3B3FA83F3DF
:1014F00003F01F03012202FA03F30B4206D0FFF7A9
:1015000049FE401B0228E6D903206CE1236813F052
:10151000040F00F0A980A44BDB6913F0805F20D199
:10152000A14BDA6942F08052DA61DB6903F0805343
:101530000193019B01259D4B1B6813F4807F12D002
:10154000E368012B23D073BB03F1804303F504331D
:101550001A6A22F001021A621A6A22F004021A625E
:101560001AE00025E7E7914A136843F4807313609B
:10157000FFF710FE06468D4B1B6813F4807FDFD10A
:10158000FFF708FE801B6428F5D903202BE1864A6B
:10159000136A43F001031362E368002B3CD0FFF7AA
:1015A000F9FD06462BE0052B09D07F4B1A6A22F085
:1015B00001021A621A6A22F004021A62ECE77A4BFC
:1015C0001A6A42F004021A621A6A42F001021A62AE
:1015D000E2E7754B196A022393FAA3F3B3FA83F394
:1015E00003F01F03012202FA03F319423BD1FFF774
:1015F000D1FD801B41F28833984200F2EF80022334
:1016000093FAA3F293FAA3F3002BE2D1022393FA05
:10161000A3F3654B596ADEE7FFF7BCFD064615E00C
:10162000614B196A022393FAA3F3B3FA83F303F02D
:101630001F03012202FA03F3194214D0FFF7AAFD97
:10164000801B41F28833984200F2CA80022393FA49
:10165000A3F293FAA3F3002BE2D1022393FAA3F3AC
:10166000514B596ADEE7B5BBE369002B00F0BA8045
:101670004D4A526802F00C02082A00F09980022BB1
:101680002FD04FF0807393FAA3F3B3FA83F303F1EF
:10169000845303F584139B0000221A60FFF77AFD40
:1016A00004464FF0007393FAA3F33F4B19684FF0D1
:1016B000007393FAA3F3B3FA83F303F01F03012239
:1016C00002FA03F319426BD0FFF764FD001B0228F6
:1016D000E7D9032087E0344AD36923F08053D361EC
:1016E000C2E74FF0807393FAA3F3B3FA83F303F1E5
:1016F000845303F584139B0000221A60FFF74AFD10
:1017000005464FF0007393FAA3F3274B19684FF087
:10171000007393FAA3F3B3FA83F303F01F030122D8
:1017200002FA03F3194206D0FFF734FD401B0228EA
:10173000E7D9032057E01C494B6823F47413626A0D
:10174000206A024313434B604FF0807393FAA3F374
:10175000B3FA83F303F1845303F584139B0001224E
:101760001A60FFF717FD04464FF0007393FAA3F3D6
:101770000D4B19684FF0007393FAA3F3B3FA83F398
:1017800003F01F03012202FA03F3194206D1FFF707
:1017900001FD001B0228E7D9032024E0002022E0FD
:1017A000002020E0208190100010024000700040D6
:1017B000012B1AD0104B5B6803F48031226A9142EE
:1017C00015D103F47013626A934212D100200AE02B
:1017D00001207047012006E0012004E0032002E020
:1017E000032000E0002002B070BD0120FBE70120D3
:1017F000F9E70120F7E700BF00100240164B5B68D5
:1018000003F00C02082A01D01448704703F4701149
:101810004FF4701292FAA2F2B2FA82F221FA02F2B4
:101820000F49885C0C4AD26A02F00F020F2191FA2C
:10183000A1F1B1FA81F1CA400A498A5C13F4803FF0
:1018400005D0064BB3FBF2F303FB00F07047064BE9
:1018500003FB00F0704700BF0010024000127A0046
:10186000603300087033000800093D00002800F0D4
:10187000BE8070B50D460446614B1B6803F007033C
:101880008B420BD25E4A136823F007030B431360AD
:10189000136803F007038B4240F0AB80236813F01A
:1018A000020F06D0574A536823F0F003A1680B4398
:1018B0005360236813F0010F5AD06368012B2DD0B9
:1018C000022B40D0022292FAA2F24E4A1068022263
:1018D00092FAA2F2B2FA82F202F01F02012101FA98
:1018E00002F2104200F0878046494A6822F0030263
:1018F00013434B60FFF74EFC0646424B5B6803F018
:101900000C036268B3EB820F32D0FFF743FC801BFD
:1019100041F288339842F0D9032067E04FF4003257
:1019200092FAA2F2374A10684FF4003292FAA2F209
:10193000B2FA82F202F01F02012101FA02F202421F
:10194000D2D1012052E04FF0007292FAA2F22D4A59
:1019500010684FF0007292FAA2F2B2FA82F202F02C
:101960001F02012101FA02F21042BDD101203DE027
:10197000234B1B6803F00703AB420AD9204A1368C4
:1019800023F007032B431360136803F00703AB42F4
:1019900033D1236813F0040F06D01A4A536823F496
:1019A000E063E1680B435360236813F0080F07D02E
:1019B000144A536823F46053216943EAC103536016
:1019C000FFF71CFF0F4B5B6803F0F003F02292FA65
:1019D000A2F2B2FA82F2D3400B4AD35CD8400B4B4E
:1019E00018600B4B1868FFF791FB002070BD0120B9
:1019F00070470120FAE70120F8E70120F6E700BF71
:101A00000020024000100240803300081000002037
:101A10000C000020014B1868704700BF1000002028
:101A200008B5FFF7F7FF074B5B6803F4E0634FF47B
:101A3000E06292FAA2F2B2FA82F2D340024AD35C96
:101A4000D84008BD001002409033000808B5FFF7E9
:101A5000E1FF074B5B6803F460534FF4605292FA66
:101A6000A2F2B2FA82F2D340024AD35CD84008BD57
:101A70000010024090330008F0B583B004460368BC
:101A800013F4803F48D0914BDB6913F0805F40F046
:101A9000D4808E4BDA6942F08052DA61DB6903F060
:101AA00080530193019B0125894B1B6813F4807FB0
:101AB00000F0C580854B1B6A13F4407322D0626826
:101AC00002F440729A421DD08048016A21F44076A7
:101AD0004FF4803393FAA3F2B2FA82F27D4F3A4484
:101AE00092004FF0010CC2F800C093FAA3F3B3FACE
:101AF00083F33B449B0000221A60066211F0010F41
:101B000040F0B280714A136A23F4407361680B435A
:101B10001362002D40F0CF80236813F0010F06D030
:101B20006A4A136B23F00303A1680B431363236812
:101B300013F0020F06D0654A136B23F44033E168BB
:101B40000B431363236813F0040F06D05F4A136B33
:101B500023F4402321690B431363236813F0200F00
:101B600006D05A4A136B23F01003E1690B43136349
:101B7000236813F4003F06D0544A536823F48003CB
:101B8000A16B0B435360236813F0400F06D04F4AFC
:101B9000136B23F02003216A0B431363236813F0B4
:101BA000080F06D0494A136B23F4401361690B43B5
:101BB0001363236813F0100F06D0444A136B23F409
:101BC0004003A1690B431363236813F4007F06D01D
:101BD0003E4A536823F40003E16A0B4353602368D1
:101BE00013F0800F06D0394AD36A23F4F873616A80
:101BF0000B43D362236813F4807F06D0334AD36A41
:101C000023F47853A16A0B43D362236813F4805FF3
:101C100006D02E4A136B23F48073216B0B4313639E
:101C2000236813F4005F4DD0284A136B23F400732C
:101C3000616B0B431363002045E0002534E7244A21
:101C4000136843F480731360FFF7A4FA0646204B31
:101C50001B6813F4807F7FF42DAFFFF79BFA801B86
:101C60006428F4D903202EE0FFF794FA064615E025
:101C7000164B196A022393FAA3F3B3FA83F303F022
:101C80001F03012202FA03F30B427FF43BAFFFF77D
:101C900081FA801B41F28833984211D8022393FACB
:101CA000A3F293FAA3F3002BE2D1022393FAA3F356
:101CB000064B596ADEE7D36923F08053D3612BE7E3
:101CC000032000E0002003B0F0BD00BF0010024080
:101CD0000070004000819010F0B583B0002362E0F6
:101CE00085685E000324B44025EA0405CC68B4404E
:101CF0002C438460446824EA0C0C4C68C4F3001440
:101D00009C4044EA0C0444605EE0DD08083550F86D
:101D1000256003F007044FEA840C0F2404FA0CF446
:101D200026EA040E0C6904FA0CF444EA0E0440F8A6
:101D3000254060E0042400E0002404FA0EF42C4363
:101D40000CF1020C524D45F82C40524C2568D443FE
:101D500025EA02064F6817F4803F01D042EA0506E3
:101D60004C4D2E606D6804EA05064F6817F4003F7D
:101D700001D042EA0506474D6E60AD6804EA0506EB
:101D80004F6817F4801F01D042EA0506414DAE604E
:101D9000ED682C404E6816F4001F01D042EA05049D
:101DA0003C4AD46001330A6832FA03F46ED04FF033
:101DB000010C0CFA03FC1CEA0202F3D04C6804F09C
:101DC0000304013C012C8BD94C6804F00304032C60
:101DD0000CD0C4685D004FF0030C0CFA05FC24EA3B
:101DE0000C0C8C68AC4044EA0C04C4604C6804F0F1
:101DF0000304022C89D004684FEA430E4FF0030C11
:101E00000CFA0EFC24EA0C0C4C6804F0030404FAEF
:101E10000EF444EA0C0404604C6814F4403FC1D052
:101E20001D4CA56945F00105A561A46904F00104F4
:101E30000194019C4FEA930C0CF10205144C54F8E8
:101E4000255003F003044FEA840E0F2404FA0EF425
:101E500025EA0405B0F1904F3FF46EAF0F4CA0425D
:101E60000ED004F58064A0420CD004F58064A0423A
:101E70000AD004F58064A0423FF45CAF05245CE71F
:101E800001245AE7022458E7032456E703B0F0BDC3
:101E9000000001400004014000100240000400481E
:101EA0000AB18161704781627047436901EA0302A8
:101EB00021EA030141EA024181617047074AD36880
:101EC00023F4E0631B041B0C000200F4E0600343F6
:101ED00043F0BF6343F40033D360704700ED00E08C
:101EE00000B5194BDB68C3F30223C3F1070CBCF147
:101EF000040F28BF4FF0040C03F1040EBEF1060FCF
:101F000018D9033B4FF0FF3E0EFA0CFC21EA0C01FE
:101F100099400EFA03F322EA0303194300280BDB6E
:101F20000901C9B200F1604000F5614080F800137A
:101F30005DF804FB0023E5E700F00F000901C9B2DA
:101F4000024B1954F4E700BF00ED00E014ED00E08F
:101F5000002807DB00F01F02400901239340024ADA
:101F600042F82030704700BF00E100E00138B0F1D6
:101F7000807F0BD24FF0E0235861054AF02182F8B0
:101F800023100020986107221A61704701207047D2
:101F900000ED00E0002859D010B5044690F841301B
:101FA000002B43D0242384F841302268136823F0A7
:101FB000010313606368226823F070631361226871
:101FC000936823F400439360E368012B33D0A36844
:101FD000226843F404439360E368022B31D0226803
:101FE000536843F0007343F4004353602268D3689E
:101FF00023F40043D360236962691343A169226813
:1020000043EA0123D360E369216A22680B4313602A
:102010002268136843F001031360002060642023EA
:1020200084F84130206384F8420010BD80F84030CD
:10203000FEF76CFBB6E7A368226843F400439360A5
:10204000CAE723684FF400625A60C8E7012070476E
:1020500090F84130DBB2202B24D190F84030012B96
:1020600022D0012380F84030242380F841300268D8
:10207000136823F0010313600268136823F480538C
:10208000136002681368194311600268136843F013
:1020900001031360202380F84130002380F8403092
:1020A00018467047022070470220704790F8413070
:1020B000DBB2202B22D190F84030012B20D001231D
:1020C00080F84030242380F841300268136823F000
:1020D000010313600268136823F4706343EA01216B
:1020E00011600268136843F001031360202380F835
:1020F0004130002380F84030184670470220704776
:102100000220704700286FD010B50446436A33B9E7
:102110004368B3F5827F05D00023C36102E000234A
:10212000036143610023A36294F85D30002B52D019
:10213000022384F85D302268136823F040031360A3
:10214000E368B3F5E06F4CD90022B3F5706F04D0AB
:10215000B3F5E06F01D00023A362636803F48273D8
:10216000A16801F404410B43216901F002010B4312
:10217000616901F001010B43A16901F400710B4396
:10218000E16901F038010B43216A01F080010B4342
:10219000A16A01F4005120680B430360638B03F0D4
:1021A0000403616A01F010010B43616B01F0080147
:1021B0000B43E16801F470610B43216813434B60EA
:1021C0002268D36923F40063D361002020660123D1
:1021D00084F85D3010BD84F85C302046FEF7F2FADA
:1021E000A6E74FF48052B0E701207047002864D082
:1021F00030B587B0044690F8A9323BB1032384F888
:10220000A9322068FEF790FB00231FE080F8A83277
:10221000FEF724FBF2E75A1C02EB820104EBC1013A
:102220000120487002EB820104F8313003EB830196
:1022300004EBC101CB8602EB820C04EBCC0C00203A
:102240008CF803008863C8630864D3B26068834273
:10225000E1D3002316E003EB830204EBC20200216A
:1022600082F8691182F8683182F86B11C2F878112E
:10227000C2F87C1103EB830204EBC202C2F88011A6
:102280000133DBB29842E6D8A4465CF8105BEE4618
:10229000BCE80F00AEE80F00DCF80030CEF80030EC
:1022A000231D0ECB2846FEF749FB002084F82400AE
:1022B000012384F8A93207B030BD01207047000027
:1022C000034AD2F8883043F47003C2F8883070476C
:1022D00000ED00E008B50B480B4B03604FF41643CC
:1022E000436000238360C36003610C224261836109
:1022F000C3610362436200F0D8FA00B908BDFDF77C
:10230000EFFFFBE7BC0400200038014000B589B0B6
:102310000023039304930593069307930268134BDA
:102320009A4202D009B05DF804FB03F558439A695C
:1023300042F480429A619A6902F480420192019AC1
:102340005A6942F400225A615B6903F40023029344
:10235000029B302303930223049303230693072352
:10236000079303A90248FFF7B7FCDBE700380140F9
:102370000008004810B504468368026913434269A7
:102380001343C2691A4301680B6823F4164323F010
:102390000C0313430B600268536823F44053C16875
:1023A0000B4353608269036A1A4301688B6823F404
:1023B000306313438B6003687B4A93420DD07B4AA2
:1023C00093421CD07A4A93423AD07A4A93424AD0F6
:1023D000794A93425AD010231FE0784B1B6B03F0CD
:1023E0000303032B09D8DFE803F00204066401238A
:1023F00013E0042311E008230FE010230DE06F4BDE
:102400001B6B03F44033B3F5003F54D013D8002BBB
:1024100053D0B3F5803F52D10423E069B0F5004FAB
:1024200069D0082B00F2B980DFE803F092A890B7DA
:10243000ABB7B7B7AE00B3F5403F42D10223ECE7EC
:102440005E4B1B6B03F44023B3F5002F3BD005D844
:10245000DBB3B3F5802F3AD10423DEE7B3F5402F89
:1024600037D10223D9E7554B1B6B03F44013B3F567
:10247000001F30D005D883B3B3F5801F2FD10423BC
:10248000CBE7B3F5401F2CD10223C6E74B4B1B6BA8
:1024900003F44003B3F5000F25D005D82BB3B3F5F3
:1024A000800F24D10423B8E7B3F5400F21D10223D4
:1024B000B3E70223B1E70823AFE70023ADE710231A
:1024C000ABE71023A9E70823A7E70023A5E710231C
:1024D000A3E71023A1E708239FE700239DE710232C
:1024E0009BE7102399E7082397E7002395E710233C
:1024F00093E7102391E7082B49D8DFE803F0051F85
:102500002548224848480900FFF78AFA002840D0A9
:102510006268530803EB4000B0FBF2F080B2A0F118
:1025200010024FF6EF739A4235D820F00F03C0F334
:10253000420018432368D86000201BE0FFF786FAAA
:10254000E4E7FFF75BF9E1E71D48E1E71C4802E03B
:10255000FFF766FA18B3636800EB5300B0FBF3F0C3
:1025600080B2A0F110024FF6EF739A4219D8236897
:10257000D860002000236366A36610BDFFF766FAEB
:10258000E8E7FFF73BF9E5E74FF40040E3E7012018
:10259000F0E70020EEE70120ECE70120EAE7002069
:1025A000E8E70120E6E700BF0038014000440040B2
:1025B00000480040004C0040005000400010024025
:1025C00000127A00436A13F0010F06D002685368C4
:1025D00023F40033816A0B435360436A13F0020F04
:1025E00006D00268536823F48033C16A0B435360FA
:1025F000436A13F0040F06D00268536823F4802363
:10260000016B0B435360436A13F0080F06D0026856
:10261000536823F40043416B0B435360436A13F048
:10262000100F06D00268936823F48053816B0B432C
:102630009360436A13F0200F06D00268936823F476
:102640000053C16B0B439360436A13F0400F0AD0F1
:102650000268536823F48013016C0B435360036CCE
:10266000B3F5801F0BD0436A13F0800F06D00268C9
:10267000536823F40023816C0B4353607047026856
:10268000536823F4C003416C0B435360EBE72DE91F
:10269000F84305460F4616469946DDF820802C681B
:1026A000E46937EA04030CBF4FF0010C4FF0000C53
:1026B000B44553D1B8F1FF3FF1D0FEF76BFDA0EB6D
:1026C000090040452DD8B8F1000F2AD02B681A68B0
:1026D00012F0040FE3D0DA6912F4006FDFD04FF488
:1026E00000621A622A6852E8003F23F4D07342E87D
:1026F00000310029F6D12A6802F1080353E8003FAF
:1027000023F00103083242E800310029F3D12023ED
:10271000AB67EB67C5F88030002385F87430032081
:102720001DE02A6852E8003F23F4D07342E80031EC
:102730000029F6D12A6802F1080353E8003F23F08C
:102740000103083242E800310029F3D12023AB67AE
:10275000EB67002385F87430032000E00020BDE81B
:10276000F8832DE9F04182B01E46836F202B56D1AD
:1027700004460D469046002955D0002A55D090F8C1
:102780007430012B53D0012380F874300023C0F83B
:10279000803021238367FEF7FDFC0746A4F85080B4
:1027A000A4F85280A368B3F5805F05D04FF000080D
:1027B000002384F8743014E0236913B14FF000084B
:1027C000F6E7A8460025F3E738F8023B2268C3F392
:1027D00008031385B4F8522092B2013A92B2A4F8D9
:1027E0005220B4F852309BB273B100963B4600229F
:1027F00080212046FFF74BFFD8B9002DE4D0236895
:1028000015F8012B1A85E5E700963B46002240218A
:102810002046FFF73CFF70B92023A36700E00220A9
:1028200002B0BDE8F0810120FAE70120F8E70220BC
:10283000F6E70320F4E70320F2E730B583B004465F
:102840000023C0F88030FEF7A5FC05462268126818
:1028500012F0080F0DD123681B6813F0040F16D176
:102860002023A367E3670020206684F8740003B088
:1028700030BD6FF07E430093034600224FF40011F9
:102880002046FFF704FF0028E5D00320EFE76FF0B4
:102890007E4300932B4600224FF480012046FFF731
:1028A000F6FE0028DCD00320E1E768B310B504464B
:1028B000836F03B32423A3672268136823F0010303
:1028C00013602046FFF756FD012813D0636ABBB999
:1028D0002268536823F4904353602268936823F07E
:1028E0002A0393602268136843F0010313602046B3
:1028F000FFF7A3FF10BD80F87430FFF707FDD9E79D
:102900002046FFF75FFEE3E701207047DFF834D091
:102910000D480E490E4A002302E0D458C450043337
:10292000C4188C42F9D30B4A0B4C002301E013600E
:102930000432A242FBD3FFF7C3FC00F039F8FDF7E5
:102940001DFDFEE700A00020000000206400002024
:10295000D4330008640000208C060020FEE700004D
:102960000EB400B59CB01DAB029006906FF0004114
:10297000094807910491094953F8042B059100680F
:10298000019302A900F094F8029B00221A701CB077
:102990005DF804EB03B07047600000200802FFFF01
:1029A00002440346934200D1704703F8011BF9E744
:1029B00070B50D4D0D4C641BA4100026A64209D124
:1029C0000B4D0C4C00F06EFC641BA4100026A642BC
:1029D00005D170BD55F8043B98470136EEE755F830
:1029E000043B98470136F2E7CC330008CC330008AB
:1029F000CC330008D0330008704770472DE9F0470A
:102A00008E681F46BE420B6882460C4690462CD804
:102A10008A8912F4906F26D06569096905EB45052E
:102A2000A3EB010905EBD5757B1C4B446D109D4252
:102A300038BF1D46530527D5294600F057F90646ED
:102A400060B321694A4600F0BDFBA38923F490637B
:102A500043F08003A381266165614E44A5EB09051F
:102A60002660A5603E46BE4200D93E4620683246FA
:102A7000414600F07CFBA3689B1BA36023683344A2
:102A800023600020BDE8F0872A4600F041FB06469F
:102A90000028E0D12169504600F0A2FB0C23CAF8BF
:102AA0000030A38943F04003A3814FF0FF30E9E7F2
:102AB0002DE9F04F98468B891B069DB007460D46C1
:102AC00014460ED50B6963B9402100F00FF9286058
:102AD000286120B90C233B604FF0FF30D0E0402349
:102AE0006B610023099320238DF82930CDF80C80E9
:102AF0003023DFF8A4818DF82A304FF001092346F6
:102B00009A4613F8012B0AB1252AF9D1BAEB040B26
:102B10000BD05B46224629463846FFF76FFF01304F
:102B200000F0A980099A5A4409929AF80030002BC3
:102B300000F0A18000234FF0FF32CDE905230AF118
:102B4000010A049307938DF853301A9354460522D3
:102B500014F8011B5048FDF71BFB049AD8B9D006A6
:102B600044BF20238DF85330110744BF2B238DF829
:102B700053309AF800302A2B15D0079A544600207B
:102B80004FF00A0C214611F8013B303B092B4DD97F
:102B9000B0B1079214E0A0EB080309FA03F3134362
:102BA0000493A246D2E7039B191D1B680391002BD7
:102BB000BBBF5B4242F0020207930793B8BF049287
:102BC00023782E2B0CD163782A2B34D1039B1A1D2A
:102BD0001B680392002BB8BF4FF0FF3302340593FC
:102BE000DFF8C4A0217803225046FDF7D1FA38B1AE
:102BF000049BA0EB0A00402282401343013404935B
:102C000014F8011B25488DF828100622FDF7C0FA9C
:102C1000002838D0224B1BBB039B073323F007034C
:102C200008330393099B3344099368E70CFB023292
:102C30000C460120A6E700230134059319464FF006
:102C40000A0C204610F8012B303A092A03D9002B30
:102C5000C6D00591C4E70CFB012104460123F0E72F
:102C600003AB00932A460F4B04A93846AFF300800C
:102C7000421C0646D6D1AB895B063FF52DAF0998BD
:102C80001DB0BDE8F08F03AB00932A46054B04A9A5
:102C9000384600F00FF9EBE798330008A23300083C
:102CA00000000000FD2900089E33000870B50E4E9C
:102CB0000C463168054611B900F074FA30602146BF
:102CC000284600F06FFA431C0AD0C41C24F0030409
:102CD000A04207D0211A284600F064FA013001D141
:102CE0004FF0FF34204670BD800600202DE9F041F2
:102CF000CD1C25F0030508350C2D38BF0C25002D03
:102D0000074601DBA94205D90C233B60002630466B
:102D1000BDE8F0812F4E00F0EFF933681C4644BB4C
:102D200029463846FFF7C2FF431C04464FD134689A
:102D30002646002E42D1002C43D023683146384627
:102D400004EB030800F02EFA80453AD123680335DE
:102D5000ED1A25F0030508350C2D38BF0C25294642
:102D60003846FFF7A3FF01302BD023682B442360A4
:102D70000EE02268521B1ED40B2A16D96119A342F9
:102D8000256018BF5960636808BF316062514B60AD
:102D9000384604F10B0600F0B5F926F00706231DAE
:102DA000F21AB4D09B1BA350B1E76268A3420CBFD8
:102DB00032605A60ECE723466468B0E734467668D0
:102DC000B7E70C233B60384600F09CF99FE725608D
:102DD000DEE700BF7C0600202DE9F0471646994645
:102DE0008A680B69DDF820809342B8BF13463360D0
:102DF00091F8432007460C460AB10133336023683B
:102E0000990642BF336802333360256815F0060522
:102E100006D104F1190AE36832689B1AAB4226DC3A
:102E200094F84320131E226818BF012392062BD466
:102E300004F1430249463846C04701301ED023689A
:102E4000226903F00603042B02BFE5683368ED1A1C
:102E5000A3680CBF25EAE57500259342C4BF9B1A01
:102E6000ED1800261A34B5421AD1002008E00123DB
:102E7000524649463846C047013003D14FF0FF3033
:102E8000BDE8F0870135C6E7E1185A1C302081F80B
:102E90004300224494F8451082F843100233C7E7F8
:102EA0000123224649463846C0470130E6D0013664
:102EB000D9E700002DE9FF470F7E0C9D782F914642
:102EC00080460C469A4601F1430207D8622F0AD881
:102ED000002F00F0D480582F00F0C08004F142058C
:102EE00084F842703AE0A7F16303152BF6D801A1EC
:102EF00051F823F04D2F0008612F0008DD2E000847
:102F0000DD2E0008DD2E0008DD2E0008612F0008F0
:102F1000DD2E0008DD2E0008DD2E0008DD2E000865
:102F2000653000088D2F00081F300008DD2E0008D6
:102F3000DD2E000887300008DD2E00088D2F0008E8
:102F4000DD2E0008DD2E0008273000082B681A1D32
:102F50001B682A6004F1420584F8423001239FE097
:102F600020682B68070603F10401296001D51E685B
:102F700003E04606FBD5B3F90060002E03DA2D23EB
:102F8000764284F843305A480A2312E02B682068BE
:102F9000191D2960050601D51E6802E04106FBD512
:102FA0001E8853486F2F0CBF08230A23002184F882
:102FB00043106568A560002DA2BF216821F00401BF
:102FC00021600EB9002D4BD01546B6FBF3F103FB83
:102FD0001167C75D05F8017D3746BB420E46F4D93F
:102FE000082B0BD12368DE0708D523696168994255
:102FF000DEBF302305F8013C05F1FF35521B22618D
:10300000CDF800A04B4603AA21464046FFF7E4FE58
:1030100001304AD14FF0FF3004B0BDE8F08723689B
:1030200043F0200323603348782784F845702368F1
:1030300029681F0651F8046B02D45F0648BFB6B278
:10304000DF0748BF43F02003296048BF23601EB953
:10305000236823F0200323601023A7E72448E4E734
:103060001546BDE72B6826686169181D286035067E
:103070001B6801D5196002E07006FBD5198000239A
:1030800023611546BCE72B681A1D2A601D6862681B
:1030900000212846FDF77CF808B1401B606063689A
:1030A0002361002384F84330AAE723692A4649466E
:1030B0004046D0470130ADD023689B0713D4E06869
:1030C000039B9842B8BF1846A6E7012332464946FB
:1030D0004046D04701309DD00135E36803995B1A23
:1030E000AB42F2DCEBE7002504F11906F5E700BF7F
:1030F000A9330008BA3300080148FFF77DBC00BFC0
:10310000780600200148FFF778BC00BF7806002051
:103110002DE9F041804614460E4621B9BDE8F04144
:103120001146FFF7E3BD2AB900F05AF825462846B4
:10313000BDE8F08100F0A0F88442074602D8B4EB65
:10314000500F12D821464046FFF7D0FD0546002813
:10315000EDD0BC422246314628BF3A4600F032F854
:103160003146404600F03CF8E1E73546DFE788426B
:1031700010B501EB020402D98442234607D8431E4E
:10318000A14208D011F8012B03F8012FF8E70244FF
:1031900001468A4200D110BD13F8014D02F8014DDD
:1031A000F7E7000038B5064D0023044608462B60BB
:1031B00000F06AF8431C02D12B6803B1236038BDCC
:1031C000840600200A44914200F1FF3300D1704789
:1031D00010B511F8014B03F8014F9142F9D110BD20
:1031E00037B5002944D051F8043C0190002BA1F1DF
:1031F0000404B8BFE418FFF77FFF1E4A0198136864
:1032000033B96360146003B0BDE83040FFF77ABFA4
:10321000A34208D9256861198B4201BF19685B6810
:1032200049192160EDE71A465B680BB1A342FAD950
:1032300011685518A5420BD1246821445418A342A3
:103240001160E0D11C685B6853600C441460DAE7DD
:1032500002D90C230360D6E7256861198B4204BFAD
:1032600019685B68636004BF491921605460CAE74C
:1032700003B030BD7C06002051F8043C181F002B21
:10328000BCBF0B58C0187047044A05491368002B8F
:1032900008BF0B4618441060184670478806002087
:1032A00090060020F8B500BFF8BC08BC9E467047E9
:0C32B000F8B500BFF8BC08BC9E46704793
:1032BC004E6F74696669636174696F6E20536574CF
:1032CC0074696E6720537563636573730A0000003D
:1032DC004E6F74696669636174696F6E20536574AF
:1032EC0074696E67204661696C65640A00000000B1
:1032FC0053656E7420537563636573730A00000025
:10330C0053656E74204661696C65640A00000000A8
:10331C0066726565205478206D61696C626F7865A2
:10332C0073203D2025640D0A000000005354442EE8
:10333C004944203D2025640D0A0000005265636558
:10334C00697665642044617461203D2025640D0A12
:10335C000000000002030405060708090A0B0C0D07
:10336C000E0F10100102030405060708090A0B0CC6
:10337C000D0E0F10000000000000000001020304FD
:10338C00060708090000000001020304232D302B5E
:10339C002000686C4C00656667454647003031324A
:1033AC0033343536373839414243444546003031A1
:1033BC003233343536373839616263646566000000
:0433CC00990200085A
:0433D000710200087E
:1033D40005000000010000000100000010000000D2
:1033E40000127A000000000040050020A80500201B
:1033F4001006002000000000000000000000000093
:1034040000000000000000000000000000000000B8
:1034140000000000000000000000000000000000A8
:103424000000000000000000000000000000000098
:043434001400002060
:040000050800290DB9
:00000001FF
